:0400000002001332B5
:03000B000201925D
:07006C007508307509FF75EE
:060073000A38750BFF7551
:060079001D00751E00755C
:06007F001F007520007552
:0600850021007522007548
:02008B00230050
:03008D0002000E60
:05000E0012022080FE3B
:0800900005177418B51703757C
:0200980017004F
:01009A002243
:08009B000516743CB51606754C
:0500A3001600020090B0
:0100A8002235
:0800A9000515743CB515067540
:0500B100150002009B98
:0100B6002227
:0800B7001515E51530E703758E
:0200BF0015002A
:0100C100221C
:0800C2001516E51630E7037581
:0200CA0016001E
:0100CC002211
:0800CD001517E51730E7037574
:0200D500170012
:0100D7002206
:0C00D80075F00AE515C2D530E704D2D55A
:0200E400F40422
:0800E60084E5F030D502F404BA
:0C00EE00FA9002CB93F50CC2D575F00A15
:0900FA00E51530E704B2D5F40469
:060103008430D502F40473
:0B010900FA9002CB93F50D75F00AE5AB
:0A01140016C2D530E704D2D5F4047A
:08011E0084E5F030D502F40481
:0C012600FA9002CB93F50EC2D575F00ADA
:09013200E51630E704B2D5F4042F
:06013B008430D502F4043B
:0B014100FA9002CB93F50F75F00AE571
:0A014C0017C2D530E704D2D5F40441
:0801560084E5F030D502F40449
:0C015E00FA9002CB93F510C2D575F00AA0
:09016A00E51730E704B2D5F404F6
:060173008430D502F40403
:070179009002CB93F5118504
:030180000C1E85CD
:030183000D1F85C8
:030186000E2085C3
:030189000F2185BE
:03018C00102285B9
:03018F0011232217
:07019200758CE275130132C8
:07019900E5126003151222BC
:0801A0007512C0E5146003159F
:0201A80014221F
:0701AA007514041200A90204
:0201B10000D874
:0A01B300E51D700E7401B51C091261
:0601BD0000A9751D0112EE
:0201C30000D862
:0A01C500E51D700E7402B51C09124E
:0601CF0000B7751D0112CE
:0201D50000D850
:0A01D700E51D700E7404B51C09123A
:0601E10000CD751D0112A6
:0201E70000D83E
:0A01E900E51D700E7408B51C091224
:0601F300009B751D0112C6
:0201F90000D82C
:0A01FB00E51D700E7410B51C09120A
:0602050000C2751D01128C
:02020B0000D819
:0A020D00E51D700E7420B51C0912E7
:060217000090751D0102BC
:02021D0000D807
:01021F0022BC
:0D022000758970758CE2758BFD758DFD750F
:06022D0012C0751A0075F5
:0A0233001B00751300D2A9D2ACD253
:0A023D00AFD28CD28E75151675161F
:080247001675171475180075F7
:05024F0019011200D8A6
:0A025400E51360FC74FA2518404021
:09025E00D296850882850983E52A
:0602670019F0850A8285F2
:05026D000B83E51824DD
:0A0272001EF8E6FAF0C296051830F7
:06027C00B50885191C12F3
:0402820001B3801034
:0A02860020B50DE51CB51908740140
:06029000B51D03751D0001
:05029600E5192519F532
:03029B00198021A6
:09029E00D296850882850983E5EA
:0602A70019F0850A8285B2
:0502AD000B83E518249D
:0A02B2001EF8E6FAF0C29675180077
:0302BC00751901B0
:0802BF00751300120199808DF6
:0A02CB003F065B4F666D7D077F6FF5
:06004200E47801F6D8FD90
:080020007900E94400601B7A3D
:05002800009002D578F4
:03002D000075A0BB
:0A00300000E493F2A308B8000205F3
:08003A00A0D9F4DAF275A0FF71
:080048007800E84400600A7929
:030050000075A098
:0600530000E4F309D8FCF3
:080059007800E84400600C7916
:0B00610000900000E4F0A3D8FCD9FAE6
:03001300758123D1
:0A0016001202C7E582600302000E2B
:0402C700758200221A
:00000001FF
